:020000040800F2
:100000006024002005010008910B0008E7090008A2
:10001000EB090008FD060008491200080000000076
:10002000000000000000000000000000191000089F
:100030000107000800000000230F0008D11100088C
:100040001F0100081F0100081F0100081F01000810
:100050001F0100081F0100081F0100081F01000800
:100060001F0100081F0100081F0100081F010008F0
:100070001F0100081F0100081F0100081F010008E0
:100080001F0100081F0100081F0100081F010008D0
:100090001F0100081F0100081F0100081F010008C0
:1000A0001F0100081F0100081F0100081F010008B0
:1000B0001F0100081F0100081F0100081F010008A0
:1000C0001F0100081F0100081F0100081F01000890
:1000D0001F0100081F0100081F0100081F01000880
:1000E0001F0100081F0100081F010008DFF810D0E1
:1000F00000F062FA0048004775130008AFF3008073
:10010000602400200648804706480047FEE7FEE7D7
:10011000FEE7FEE7FEE7FEE7FEE7FEE7FEE7FEE7B7
:10012000E9110008ED000008D2B201E000F8012B4F
:10013000491EFBD270470022F6E710B513460A4667
:1001400004461946FFF7F0FF204610BD2DE9FE4F8B
:10015000804681EA0300C00F0C46009021F0004168
:1001600023F00045B8EB0200A94105D240462146E4
:1001700090461C460B46024623F00040104347D0F1
:10018000270DC7F30A00C3F30A510290401A0190E9
:1001900040286BDAC3F3130040F4801B00989246AA
:1001A00020B10023D2EB030A63EB0B0B01985946F5
:1001B000C0F14002504600F021F906460D46504677
:1001C0005946019A00F039F910EB0800614100240A
:1001D00087EA115284EAE7731A4340D0009A62B367
:1001E000019A012A4FEA075215DC001B61EB02015C
:1001F0004FF0004202EA0752CDE90042001C41F5EF
:10020000801132462B4600F070F903B0BDE8F08F44
:1002100040462146F9E7001B61EB0201001C41F555
:10022000801300185B412018A2F5001747EB03016B
:1002300040EAD570B6196D4111E06D084FEA3606F7
:1002400045EAC0754FEA0752001B61EB0201001C32
:1002500041F5801149084FEA3000001951413246FA
:100260002B4603B0BDE8F04F00F030B900980122F2
:1002700040000023D0EB020263EBE07300982146BC
:100280004FEAE074B8EB000061EB0401E9E783F0AA
:1002900000435BE781F0004158E72DE9F04D81EA2A
:1002A000030404F0004B21F0004514464FF0000A0F
:1002B00023F0004150EA050220D054EA01021DD08B
:1002C000C5F30A570246C5F31303C1F31300C1F384
:1002D0000A5640F4801543F48013A7EB0608101B60
:1002E000D64608F2FD3873EB050002D308F1010889
:1002F00001E092185B41B8F1000F03DA00200146DB
:10030000BDE8F08D00204FF48011064684460EE0D3
:10031000171B73EB050705D3121B63EB050306439D
:100320004CEA010C49084FEA300092185B4150EA50
:100330000107EDD152EA030012D082EA040083EAF9
:100340000501084305D0101BAB4106D20122002352
:1003500006E000224FF0004302E06FF0010253106C
:100360001AEB06004CEB085110EB0A0041EB0B01B5
:10037000BDE8F04D00F0AAB80EB540F2334102914D
:100380000021CDE900110A460B4600F0AEF803B09B
:1003900000BDC1F30A5210B5C1F3130140F2FF339F
:1003A00041F480119A4201DA002010BD40F233433B
:1003B0009A42A2F2334203DC524200F02EF810BD02
:1003C000904010BD01F0004330B421F0004150EAEC
:1003D000010206D00A0DA2F56072C1F31301002AD2
:1003E00002DC30BC00207047440F44EAC104C10065
:1003F000E01830BC00EBC25000F031B8202A04DB1A
:10040000203A00FA02F1002070479140C2F1200327
:1004100020FA03F3194390407047202A04DB203A66
:1004200021FA02F00021704721FA02F3D040C2F114
:1004300020029140084319467047202A06DBCB175B
:10044000203A41FA02F043EAE07306E041FA02F38F
:10045000D040C2F12002914008431946704700295C
:10046000A8BF7047401C490008BF20F0010070473A
:1004700010B4B0FA80FC00FA0CF050EA010404BF9A
:1004800010BC704749B1CCF1200421FA04F411FAF0
:100490000CF118BF012121430843A3EB0C01CB1D34
:1004A0004FEA00614FEA102042BF002010BC7047A5
:1004B00000EBC35010440029A4BF10BC7047401C7F
:1004C000490008BF20F0010010BC704710B5141E91
:1004D00073F1000408DA401C41F1000192185B41FD
:1004E0001A4301D120F0010010BD2DE9F04D9246D4
:1004F0009B4611B1B1FA81F202E0B0FA80F22032EB
:100500009046FFF77BFF04460F4640EA0A0041EAA7
:100510000B0153465A46084313D0114653EA0100D3
:1005200019D0C8F140025046FFF777FF05460E4646
:10053000504659464246FFF761FF084305D0012067
:1005400004E020463946BDE8F08D0020054346EA28
:10055000E0762C4337430A986305E40AA0EB0800D1
:100560000022FD0A44EA47540A3002D50020014621
:10057000E9E7010510196941DDE9084500196941FC
:10058000BDE8F04DA2E7000030B5041E71F1000493
:1005900004DB4FF00044404264EB0101141E73F190
:1005A000000405DB1C464FF00043524263EB04039A
:1005B000994208BF904230BD064C074D06E0E06806
:1005C00040F0010394E8070098471034AC42F6D39A
:1005D000FFF790FDC4380008E438000870B58C18A7
:1005E00010F8015B15F0070301D110F8013B2A1147
:1005F00006D110F8012B03E010F8016B01F8016B34
:100600005B1EF9D12B0705D40023521E0DD401F82F
:10061000013BFAE710F8013BCB1A921C03E013F8F8
:10062000015B01F8015B521EF9D5A142D8D300202D
:1006300070BDF0B5837B03B9F0BD002901DB8029D3
:1006400000DBF9E7002A01DB402A00DBF4E7438BFB
:10065000BBB1838BABB1B0F916308B4205DCB0F97E
:100660001630448B23448B4200DCE5E7B0F91830A8
:10067000934205DCB0F91830848B2344934200DCAC
:10068000DAE7837B012B1CD1D51702EB5575ED10F2
:1006900001EBC5154668755D1446D61702EB567614
:1006A000F610A2EBC6070126BE403543EEB2134654
:1006B000D51702EB5575ED1001EBC51547687E5552
:1006C0001AE0D51702EB5575ED1001EBC51546681C
:1006D000755D1446D61702EB5676F610A2EBC607E8
:1006E0000126BE40B5431346D61702EB5676F610E8
:1006F00001EBC6164768BD5500BF9DE700BFFEE78A
:100700007047000070B5044600F00EF80548006818
:100710000519002600BF034800680021401BB141B5
:10072000F9D370BD140400202DE9F04186B02E48A5
:100730000078002855D101202B490870142101A808
:10074000FFF7F9FC4FF0E020006920F001004FF0C6
:10075000E021086100202549086001A800F0F2FBB3
:100760004FF0E020006940F002004FF0E021086106
:1007700000211F48C1774FF47A710298B0FBF1F461
:10078000B4F1807F09D3E4084FF0E020006920F045
:1007900004004FF0E021086107E04FF0E02000691D
:1007A00040F004004FF0E0210861601E4FF0E021AE
:1007B00048610846006940F001000861496921F07C
:1007C0007F41481CFFF7D8FD07463A460B460020FC
:1007D0000849FFF762FD0546FFF7F4FD064908608A
:1007E00000BF06B0BDE8F08118040020140400200A
:1007F00000ED00E000408F401C0400202DE9F04F88
:1008000087B005460F4690469946A87B20B9287BBD
:1008100010B907B0BDE8F08F95F80DA001206873FE
:100820004846FFF7A9FD0022214BCDE90001FFF763
:1008300034FDCDE9020100F019FDCDE90401FFF717
:10084000A8FD1FFA80FB00242CE0002625E0E2171B
:1008500004EB5272D21006FB0B23119AD25CE31701
:1008600004EB5373DB10A4EBC30C802343FA0CF3AB
:100870001A4042B108EB060002B2381901B228460C
:1008800000F0FFFA07E008EB060002B2381901B2E7
:100890002846FFF7CEFE701C06B210988642D6DBC3
:1008A000601C04B24C45D0DB85F80DA000BFB0E75A
:1008B000000020402DE9F0410246002500260020DE
:1008C00000230024002791F803C00CF00F0591F8D5
:1008D00003C00CF0100CBCF1000F03D091F802C063
:1008E0004CEA050591F800C0BCF1000F31D0146846
:1008F00000202BE04FF0010C0CFA00F3B1F800C01F
:100900000CEA03069E4220D183004FF00F0C0CFA34
:1009100003F7BC4305FA03FC4CEA040491F803C056
:10092000BCF1280F06D14FF0010C0CFA00FCC2F804
:1009300014C00AE091F803C0BCF1480F05D14FF094
:10094000010C0CFA00FCC2F810C0401C0828D1D3DE
:100950001460B1F800C0BCF1FF0F34DD5468002012
:100960002EE000F1080C4FF0010808FA0CF3B1F882
:1009700000C00CEA03069E4221D183004FF00F0C09
:100980000CFA03F7BC4305FA03FC4CEA040491F8A3
:1009900003C0BCF1280F05D100F1080C08FA0CF8CF
:1009A000C2F8148091F803C0BCF1480F07D100F1E0
:1009B000080C4FF0010808FA0CF8C2F81080401C2F
:1009C0000828CED35460BDE8F08102460020936829
:1009D0000B400BB1012000E0002070470AB101611B
:1009E00000E04161704700BFFEE700BFFEE7000086
:1009F00008B5034800906946024800F0E5F808BDD4
:100A0000591300083804002038B5044635492068D9
:100A1000884204D10121042000F084FA19E032490F
:100A20002068884204D10121082000F07BFA10E000
:100A30002E492068884204D10121102000F072FA6A
:100A400007E02B492068884203D10121202000F0D3
:100A500069FAA1890122A068FFF7C0FFA1880122DD
:100A60002068FFF7BBFF1F49A068884204D101211D
:100A7000042000F057FA19E01B49A068884204D10D
:100A80000121082000F04EFA10E01849A0688842C1
:100A900004D10121102000F045FA07E01449A068B4
:100AA000884203D10121202000F03CFAA088ADF853
:100AB000000014208DF8030002208DF80200694622
:100AC0002068FFF7F7FEA089ADF8000014208DF82C
:100AD000030002208DF802006946A068FFF7EAFED5
:100AE00038BD000000080140000C0140001001402A
:100AF000001401402DE9F04104460E461746984681
:100B0000A1890122A068FFF769FFA188012220685E
:100B1000FFF764FFA1890022A068FFF75FFF0120B3
:100B200000F012FC06F0FE01204600F076FA30B12B
:100B3000204600F0B5FA4FF0FF30BDE8F081002507
:100B40000CE0795D204600F068FA28B1204600F0FC
:100B5000A7FA6FF00100F0E7681C85B24545F0DBAD
:100B6000204600F09DFA0020E7E7000010B5064897
:100B7000064908604020888003488860802088817A
:100B80000846FFF741FF10BD000C0140280400207B
:100B9000704710B504464FF480616068FFF7CBFAE8
:100BA00010BD2DE9FC4104460D4616461F46CDE911
:100BB0000067B4F91220B4F910102B462046FFF755
:100BC0001DFEBDE8FC81000038B504460D462868CE
:100BD000206040F2014000F003FC6060606810B9E2
:100BE0006FF0010038BD6068401C60604FF48061A8
:100BF0006068FFF7A0FA00231A46AE21204600F0F5
:100C000004F910B14FF0FF30ECE780200090012391
:100C10006A46D521204600F0F8F810B14FF0FF30B9
:100C2000E0E73F20009001236A46A821204600F01B
:100C3000ECF810B14FF0FF30D4E700200090012312
:100C40006A46D321204600F0E0F810B14FF0FF30A3
:100C5000C8E700231A464021204600F0D6F810B11C
:100C60004FF0FF30BEE71420009001236A468D212B
:100C7000204600F0CAF810B14FF0FF30B2E7002074
:100C8000009001236A462021204600F0BEF810B1F2
:100C90004FF0FF30A6E700231A46A121204600F0BE
:100CA000B4F810B14FF0FF309CE700231A46C8217A
:100CB000204600F0AAF810B14FF0FF3092E7122062
:100CC000009001236A46DA21204600F09EF810B118
:100CD0004FF0FF3086E7CF20009001236A46812144
:100CE000204600F092F810B14FF0FF307AE7F12083
:100CF000009001236A46D921204600F086F810B101
:100D00004FF0FF306EE72020009001236A46DB2180
:100D1000204600F07AF810B14FF0FF3062E7002370
:100D20001A462E21204600F070F810B14FF0FF3027
:100D300058E700231A46A421204600F066F810B1B7
:100D40004FF0FF304EE700231A46A621204600F060
:100D50005CF810B14FF0FF3044E700231A46AF2192
:100D6000204600F052F810B14FF0FF303AE7012072
:100D7000607320730020A07320826082A082E083D1
:100D800020846084A0840248A06000202AE700003C
:100D90003035000838B5044600208DF800000123E6
:100DA0006A462021204600F030F810B14FF0FF30A5
:100DB00038BD00208DF800007F208DF8010002234F
:100DC0006A462121204600F020F810B14FF0FF3094
:100DD000EEE700208DF8000007208DF801000223C7
:100DE0006A462221204600F010F810B14FF0FF3083
:100DF000DEE74FF480622046616800F027F810B10A
:100E00004FF0FF30D4E70020D2E72DE9FC41054642
:100E10000E461746984600208DF800008DF80160B8
:100E2000002405E0395DA01C0DF80010601CC4B260
:100E30004445F7DBA21C694678202B68984718B117
:100E40004FF0FF30BDE8FC810020FBE72DE9F041C9
:100E500005460C461646002714F8018C402004F87D
:100E6000010C701C82B2611E78202B68984700B17B
:100E70007F1E04F8018C3846BDE8F0810182428271
:100E800070472DE9FC5F04468A469346207B08B9EB
:100E9000BDE8FC9F607B00B9FAE7607B00EBD07196
:100EA0004910A0EB410139B1607B00EBD0714D10CE
:100EB0002E462F46A8460CE0607B00EBD0714D100B
:100EC0002E462F46A846A8F101001FFA80F8781E8A
:100ED00087B2A07B0190207BA073AAEB08000FFAD9
:100EE00080F916E0ABEB070000B2009008E049463D
:100EF0002046009AFFF79DFB0098401C00B200902E
:100F00000BEB060100988142F1DA09F101000FFABA
:100F100080F90AEB05004845E4DA0198A07300BFA8
:100F2000B6E7704729B1064A92690243044B9A61B9
:100F300004E0034A92698243014B9A6170470000C2
:100F40000010024030B500210022002400232D4D66
:100F50006D6805F00C0121B1042905D0082923D1C1
:100F600005E0294D056022E0274D05601FE0254D75
:100F70006D6805F47012234D6D6805F48034022508
:100F800005EB92421CB9214D554305600BE01D4D08
:100F90006D6805F400351DB11C4D5543056002E038
:100FA000194D5543056002E0174D056000BF00BFB5
:100FB000144D6D6805F0F0010909154D6B5C05686D
:100FC000DD4045600F4D6D6805F4E061090A104D84
:100FD0006B5C4568DD4085600A4D6D6805F46051C5
:100FE000C90A0B4D6B5C4568DD40C560054D6D68F9
:100FF00005F44041890B074D6B5CC568B5FBF3F503
:10100000056130BD0010024000127A0000093D0069
:101010000004002010040020704770B504460E46FE
:1010200007251DE0A18800222068FFF7D7FC0123D7
:10103000AB4033400BB1012300E000231A46A189E5
:10104000A068FFF7CBFC022000F07EF9A188012206
:101050002068FFF7C3FC022000F076F9681E45B255
:10106000002DDFDAA18800222068FFF7B7FCA189F4
:101070000122A068FFF7B2FC022000F065F9A18808
:1010800001222068FFF7AAFC022000F05DF9A18987
:10109000A068FFF79AFC012800D170BD0020FCE792
:1010A00010B50446A18800222068FFF797FC0120B4
:1010B00000F04AF9A1890022A068FFF78FFC012007
:1010C00000F042F9A18801222068FFF787FC012087
:1010D00000F03AF9A1890122A068FFF77FFC012006
:1010E00000F032F910BD10B500F002F810BD00009C
:1010F0000CB50020019000903348006840F4803027
:101100003149086000BF3048006800F400300090AA
:101110000198401C0190009818B90198B0F5A06F93
:10112000F1D12948006800F4003010B1012000908E
:1011300001E0002000900098012843D12348006876
:1011400040F01000214908600846006820F00700C0
:1011500008600846006840F0020008601A484068CD
:10116000194948600846406848600846406840F4AD
:10117000806048600846406820F47C10486008465B
:10118000406840F4E81048600846006840F080700D
:10119000086000BF0C48006800F000700028F9D01B
:1011A0000948406820F00300074948600846406845
:1011B00040F00200486000BF0348406800F00C00A7
:1011C0000828F9D10CBD00000010024000200240A8
:1011D0000448036840685A1C40F1000001490A6055
:1011E000486070471404002010B51348006840F0B0
:1011F00001001149086008464068104908400E493E
:101200004860084600680E4908400B4908600846D7
:10121000006820F4802008600846406820F4FE0042
:1012200048604FF41F008860FFF75DFF4FF00060DB
:101230000449086010BD0000001002400000FFF8E3
:10124000FFFFF6FE08ED00E000BFFEE702E008C881
:10125000121F08C1002AFAD170477047002001E030
:1012600001C1121F002AFBD1704700002DE9F04197
:10127000C1F30A52A2F2FF362F4A304B0D46044604
:10128000142E2FDA002E12DAFEF760FF002213462A
:10129000FFF77AF94CD2002DBCBF4FF00045002477
:1012A00046DB55EA040018BF254D19D140E0DFF8B0
:1012B00094C02CFA06F705EA070C5CEA040C08BF98
:1012C000BDE8F081FEF742FF00221346FFF75CF90C
:1012D0002ED2002D03DD4FF48010F0400544BD43B5
:1012E000002425E0332EC8BFBDE8F081A6F1140C20
:1012F0004FF0FF3727FA0CF73C4208BFBDE8F081FA
:10130000FEF7C8FF00221346FFF73EF910D2002D6A
:101310000DDD142E08BF6D1C09D0C6F1340001216B
:1013200001FA00F02044A04238BF6D1C0446BC43C3
:1013300029462046BDE8F0819C7500883CE4377E54
:101340000000F03FFFFF0F00002100E0491CC20039
:101350008A42FBD87047000070B504460D46164619
:1013600033462A4621460248FFF7C4FB70BD000001
:1013700028040020FFF7FAFBFFF73AFB29E01548A5
:10138000FFF707FC002211461248FFF777FD124BCA
:10139000402280210F48FFF704FC0E48FFF7FAFCBB
:1013A0004FF4FA70FFF7AEF90A48FFF7F2FB00229C
:1013B00011460848FFF762FD084B4022802105488E
:1013C000FFF7EFFB0348FFF7E5FC4FF4FA70FFF778
:1013D00099F9D4E73804002000000020241D0008FB
:1013E000F0B50B30154D20F007010024144A0FE032
:1013F00003688B420BD38B4205D95E1A43184768AA
:10140000C3E9006700E04368136002C004E0021D06
:1014100010680028ECD12046002802D1286808B1C5
:101420000020F0BD064A07481060074A121A22F051
:101430000702C0E9002401202860D7E72404002027
:101440002004002064040020601400203E004700B7
:10145000030003001F006300C300C300C7007B80BC
:10146000C000C000C000C000C000C000DF00F180AC
:10147000E080C0C0C0C0C0C0C0C0C180E180BE00AC
:101480001F0071806000C000C000C000C0004000AC
:1014900060801F0000C000C000C000C000C000C0CD
:1014A0001EC063C041C0C0C0C0C0C0C0C0C0C1C0B9
:1014B00063C03EC01F00618040C0C0C0FFC0C0000C
:1014C000C000400070801F000C3C20606060F8602D
:1014D00060606060606060603FC06300C180C18028
:1014E000C18063003E00600060003F8061C0C0C0FA
:1014F000C0C0C0C061803E00C000C000C000C000CD
:10150000C000C000DE00F300E180C180C180C18066
:10151000C180C180C180C180C0C00000C0C0C0C047
:10152000C0C0C0C0C0C030300000303030303030BB
:10153000303030303030303060C0C000C000C000CB
:10154000C000C000C000C300C600CC00D800F0003E
:10155000D800CC00CE00C700C380C0C0C0C0C0C08F
:10156000C0C0C0C0C0C0C0C0C0C0DE78F38CE38CB7
:10157000C30CC30CC30CC30CC30CC30CC30CDE00E4
:10158000E300C180C180C180C180C180C180C180B1
:10159000C1801F0071C040C0C060C060C060C0603A
:1015A00040C061C01F00DF00F180E080C0C0C0C04B
:1015B000C0C0C0C0E180F180DE00C000C000C0003B
:1015C000C000C000C0003EC063C0C1C0C0C0C0C039
:1015D000C0C0C0C041C063C01EC000C000C000C0C9
:1015E00000C000C000C0F8E0C0C0C0C0C0C0C0C0E3
:1015F0003CC4C0C0701C06068CF8606060F8606077
:101600006060606060603CC180C180C180C180C199
:1016100080C180C180C38063803D80C180C1804122
:1016200000630062002600360014001C00180083CE
:1016300002C386C384468C648C24C82C5838701826
:10164000701830C1806300320034001C001C00366A
:101650000066004300C180C0C0C180C180630063D8
:10166000002200360014001C001C00180018003076
:10167000003000200060007F800300060004000CA2
:10168000001800100030006000FF8000060000C657
:101690000018C60018C40018C40018C44018FFC0C1
:1016A0001FFC00FCCC0018CC0018CC0018FC001863
:1016B000C0001840001800001801803FFF80061885
:1016C000000718000E30000C30401C7FE01840C0AE
:1016D00030C080788D00D90C00184C00184D80184F
:1016E000CCC0198CE0198C60188C00184C00183C88
:1016F000000818000C00800C03C00C7DC00C038097
:10170000190300198E001F8600FB06005307E03303
:10171000FE002606001E06000F86001F86001886A3
:1017200000307E00401C00800C00000E001FFE00F8
:1017300018CE001BEC0008CC000FFC0009C0000311
:10174000F000061C000C0F001E37C06633E0863028
:10175000000630000C30000C300018300030300033
:1017600061000000620000006300000064000000EF
:1017700065000000660000006700000068000000CF
:10178000690000006A0000006B0000006C000000AF
:101790006D0000006E0000006F000000700000008F
:1017A000710000007200000073000000740000006F
:1017B000750000007600000077000000780000004F
:1017C000790000007A000000164E0000604F000013
:1017D0007D5900004C750000B03500086100000024
:1017E000EF0100000B0000000000000000000000FE
:1017F0000000000009000A000100FFFF14000000C3
:101800004C140008C0350008620000001C020000F3
:101810000C000000000000000000000000000000BC
:101820000A0010000100FFFF200000006014000803
:10183000D035000863000000EF0100000B0000003D
:1018400000000000000000000000000009000A0085
:101850000100FFFF1400000080140008E0350008BC
:10186000640000001C0200000C00000000000000EA
:1018700000000000000000000A0010000100FFFF4F
:101880002000000094140008F035000865000000F6
:101890001C0200000C00000000000000000000001E
:1018A000000000000A000A000100FFFF1400000011
:1018B000B414000808360008660000000E0100009D
:1018C0000600000000000000000000000000000012
:1018D000060010000000FFFF10000000C814000800
:1018E00018360008670000001C0200000C00000011
:1018F0000000000000000000000000000A001000CE
:101900000100F9FF20000000D81400082836000864
:1019100068000000490200000D0000000000000007
:101920000000000000000000090010000200FFFF9E
:1019300020000000F8140008383600086900000094
:101940000E01000006000000000000000000000082
:101950000000000002000E000200FFFF0E00000069
:1019600018150008483600086A0000000E01000043
:101970000600000000000000000000000000000061
:10198000040014000000F9FF1400000026150008F0
:10199000583600086B000000EF0100000B0000004B
:1019A000000000000000000000000000090010001E
:1019B0000200FFFF200000003A150008683600080A
:1019C0006C0000000E010000060000000000000096
:1019D0000000000000000000020010000200FFFFF5
:1019E000100000005A150008703600086D00000055
:1019F0002A030000120000000000000000000000A8
:101A0000000000000E000A000200FFFF14000000AA
:101A10006A150008803600086E00000049020000C8
:101A20000D000000000000000000000000000000A9
:101A300009000A000200FFFF140000007E150008E4
:101A4000883600086F000000490200000D00000009
:101A50000000000000000000000000000B000A0071
:101A60000100FFFF14000000921500085C3500081B
:101A700070000000490200000D000000000000009E
:101A800000000000000000000A0010000200F9FF42
:101A900020000000A6150008B835000871000000FD
:101AA0001C0200000C00000000000000000000000C
:101AB000000000000A0010000100F9FF20000000F3
:101AC000C6150008C8350008720000006801000053
:101AD00008000000000000000000000000000000FE
:101AE00005000A000200FFFF0A000000E6150008DA
:101AF000D8350008730000009501000009000000BF
:101B000000000000000000000000000007000A00C4
:101B10000100FFFF0A000000F0150008E83500088A
:101B2000740000000E01000006000000000000002C
:101B3000000000000000000006000D000000000092
:101B40000D000000FA150008F835000875000000C7
:101B5000490200000D00000000000000000000002D
:101B60000000000009000A000200FFFF140000004E
:101B7000071600081036000876000000EF0100008C
:101B80000B0000000000000000000000000000004A
:101B900009000A000100FFFF140000001B160008E6
:101BA0002036000877000000FD0200001100000050
:101BB0000000000000000000000000000F000A000C
:101BC0000100FFFF140000002F1600083036000847
:101BD00078000000EF0100000B0000000000000092
:101BE000000000000000000009000A000100FFFFE3
:101BF0001400000043160008403600087900000079
:101C0000EF0100000B0000000000000000000000D9
:101C1000000000000A0010000100F9FF2000000091
:101C200057160008503600087A000000EF01000047
:101C30000B00000000000000000000000000000099
:101C400009000A000100FFFF1400000077160008D9
:101C500000360008164E0000DE03000016000000EB
:101C60000000000000000000000000001200110051
:101C70000200FFFF330000008B16000854350008F7
:101C8000604F0000DE0300001600000000000000AE
:101C90000000000000000000130012000100FDFF22
:101CA00036000000BE160008783600087D59000096
:101CB000B10300001500000000000000000000005B
:101CC00000000000130012000100FDFF36000000BC
:101CD000F4160008603600084C750000DE030000B2
:101CE00016000000000000000000000000000000DE
:101CF000130012000200FCFF360000002A17000843
:101D0000AC350008643500080000000010006400D5
:101D1000640018001D00FFFFF8FF20006017000896
:101D2000D8170008000000000000000000000000BC
:101D300000000000000000000000000000000000A3
:101D40000000000000000000000000000000000093
:101D50000000000000000000000000000000000083
:101D60000000000000000000000000000000000073
:101D70000000000000000000000000000000000063
:101D80000000000000000000000000000000000053
:101D90000000000000000000000000000000000043
:101DA0000000000000000000000000000000000033
:101DB0000000000000000000000000000000000023
:101DC0000000000000000000000000000000000013
:101DD0000000000000000000000000000000000003
:101DE00000000000000000000000000000000000F3
:101DF00000000000000000000000000000000000E3
:101E000000000000F00000000000000000000000E2
:101E100000000007FF800000000003FFFC0000003E
:101E20000000007FFFFE00000003FFFFFFFC00003A
:101E300000000FFFFFFFF000001FFFFFFFFFE000AB
:101E40000003FFFFFFFFFF8000FFFFFFFFFFFC001D
:101E5000003FFFFFFFFFFFFFC3FFFFFFFFFFFF008C
:101E60003FFFFFFFFFFFFFFFFBFFFFFFFFFFFFE362
:101E7000FFFFFFFFFFFFFFFFFFFFFFFFFFFFFFFF72
:101E8000FFFFFFFFFFFFFFFFFFFFFFFFFFFFFFFF62
:101E9000FFFFFFFFFFFFFFFFFFFFFFF807FFFFFF51
:101EA000FFFFFFFFFFFFFFFFFFFFFFFFFDFFFFFF44
:101EB000FFFFFFFFFFFFFFFFFFFFFFFFFFFFFFFF32
:101EC000FFFFFFFFFFFFFFFFFFFFFFFFFFFFFFFF22
:101ED000FFFFFFFFFFFFFFFFFFFFFFFFFFFFFFFF12
:101EE000FFFFFFFFFFFFFFFFFFFFFFFFFFFFFFFF02
:101EF000FFFFFFFFFFFFFFFFFFFFFFFFFFFFFFFFF2
:101F0000FFFFFFFFFFFFFFFFFFFFFDFFFFFFFFFFE3
:101F1000FFFFFFFFFFFFFFFFFFFFFC1E01FFFFFFB3
:101F2000FFFFFFFFFFFFFFFFFFFFFFFFFFFFFFFFC1
:101F3000FFFFFFFFFFFFFFFFFFFFFFFFFFFFFFFFB1
:101F4000FFFFFFFFFFFFFFFFFFFFFFFFFFFFFFFFA1
:101F5000FFFFFFFFFFFFFFFFFFFFFF9F1FFFFFFFD1
:101F6000FFFFFFFFFFFFFFFFFFFFFFFFFFFFFFFF81
:101F7000FFFFFFFFFFFFFFFFFFFFFFFFFFFFFFFF71
:101F8000FFFFFFFFFFFFFFFFFFFFFFFFFFFFFFEF71
:101F9000FFFFFFFFFFFFFFFFFFFFFFFFFFFFFFFF51
:101FA000FFFFFFFFFFFFFFFF3FFFFFFFFFFFFFCF31
:101FB0007FFFFFFFFFFFFFFC3FFF1FFFFFFFFFDF74
:101FC000FFFFFFFFFFFFFFF83FF20FFFFF467FC35A
:101FD000FFFFFFFFFFFFFFF03FFFFFFFFFFFFFC11E
:101FE000FFFFFFFFFFFFFFC03FFFFFFFFFFFFF807F
:101FF000FFFFFFFFFFFFFF800F80FFFFFC015F007F
:102000007FFFFFFFFFFFFF8003FFFFFFFFFFF800E1
:102010007FFFFFFFFFFFFF8001FFFFFFFFFFC0000B
:102020003FFFFFFFFFFFFF0000FFFFFFFFFF00007C
:102030007FFFFFFFFFFFFF00003FFFFFFFF80000F3
:102040007FFFFFFFFFFFFF00000FFFFFFFE000002B
:102050007FFFFFFFFFFFFF800001FFFFFF00000089
:10206000FFFFFFFFFFFFFFC000003FFFF000000188
:10207000FFFFFFFFFFFFFFF0000003FC0000000375
:10208000FFFFFFFFFFFFFFF0000000000000000760
:10209000FFFFFFFFFFFFFFFE000000000000001F2A
:1020A000FFFFFFFFFFFFFFFF800000000000007F39
:1020B000FFFFFFFFFFFFFFFFFFD80000000003FF4F
:1020C000FFFFFFFFFFFFFFFFFFF00000000007FF23
:1020D000FFFFFFFFFFFFFFFFFFFF80000000FFFF8C
:1020E000FFFFFFFFFFFFFFFFFFFFF800003FFFFFC5
:1020F000FFFFFFFFFFFFFFFFFFFFFFFFFFFFFFFFF0
:10210000FFFFFFFFFFFFFFFFFFFFFFFFFFFFFFFFDF
:10211000FFFFFFFFFFFFFFFFFFFFFFFFFFFFFFFFCF
:10212000FFFFFFFF0080808080800080A0A0A05083
:1021300050F850F850502078A05008D0C0C8102057
:10214000409818E090A040A89068C040802040804F
:1021500080804020804020202040805020F8205067
:102160002020F82020C04080F8C0C0081020408007
:10217000708898A8C8887040C040404040E070888F
:1021800008102040F8F81020100888701030509087
:10219000F81010F880F008088870304080F08888C7
:1021A00070F80810204040407088887088887070EF
:1021B000888878081060C0C000C0C0C0C000C0409F
:1021C0008010204080402010F800F880402010202F
:1021D00040807088081020002070880868A8A870C7
:1021E00070888888F88888F08888F08888F07088F7
:1021F0008080808870E09088888890E0F88080F007
:102200008080F8F88080E080808070888080988866
:1022100070888888F8888888C04040404040C03036
:102220001010101090608890A0C0A09088808080CE
:10223000808080F888D8A8888888888888C8A898E6
:10224000888870888888888870F08888F080808086
:1022500070888888A89068F08888F0A09088788036
:1022600080700808F0F820202020202088888888A6
:1022700088887088888888885020888888A8A8D806
:10228000888888502050888888885020202020F80E
:102290000810204080F8E08080808080E08040202E
:1022A0001008E02020202020E0205088F8804020E6
:1022B00070087888788080B0C88888F070808088BE
:1022C00070080868988888787088F880703048406E
:1022D000E040404078887808308080B0C88888889E
:1022E0004000C0404040E0100030101090608080FE
:1022F00090A0C0A090C04040404040E0D0A8A88836
:1023000088B0C88888887088888870F088F0808055
:10231000689878080808B0C880808070807008705D
:102320004040E0404048308888888898688888889D
:1023300050208888A8A8508850205088888878081D
:1023400070F8102040F8204040804040208080807D
:10235000808080808040402040408040A810000065
:1023600020000000210000002200000023000000E7
:1023700024000000250000002600000027000000C7
:1023800028000000290000002A0000002B000000A7
:102390002C0000002D0000002E0000002F00000087
:1023A0003000000031000000320000003300000067
:1023B0003400000035000000360000003700000047
:1023C00038000000390000003A0000003B00000027
:1023D0003C0000003D0000003E0000003F00000007
:1023E00040000000410000004200000043000000E7
:1023F00044000000450000004600000047000000C7
:1024000048000000490000004A0000004B000000A6
:102410004C0000004D0000004E0000004F00000086
:102420005000000051000000520000005300000066
:102430005400000055000000560000005700000046
:1024400058000000590000005A0000005B00000026
:102450005C0000005D0000005E0000005F00000006
:1024600060000000610000006200000063000000E6
:1024700064000000650000006600000067000000C6
:1024800068000000690000006A0000006B000000A6
:102490006C0000006D0000006E0000006F00000086
:1024A0007000000071000000720000007300000066
:1024B0007400000075000000760000007700000046
:1024C00078000000790000007A0000007B00000026
:1024D0007C0000007D0000007E00000090360008B7
:1024E00020000000E80300000700000000000000DA
:1024F00000000000000000000000000000000000DC
:102500000000000024210008B83600082100000067
:10251000E8030000070000000000000000000000C9
:102520000000000001000700030001000700000098
:1025300025210008D836000822000000E80300002A
:102540000700000000000000000000000000000084
:102550000300030002000400030000002C21000817
:10256000F836000823000000E80300000700000020
:10257000000000000000000000000000050007004F
:1025800001000100070000002F2100081837000893
:1025900024000000E8030000070000000000000025
:1025A000000000000000000005000600010002001D
:1025B000060000003621000838370008250000001A
:1025C000E803000007000000000000000000000019
:1025D00000000000050007000100010007000000E6
:1025E0003C2100085837000826000000E8030000DE
:1025F00007000000000000000000000000000000D4
:102600000500070001000100070000004321000849
:102610007837000827000000E803000007000000EA
:1026200000000000000000000000000002000300A5
:1026300002000500030000004A2100089837000846
:1026400028000000E8030000070000000000000070
:10265000000000000000000003000700020001006D
:10266000070000004D210008C437000829000000C1
:10267000E803000007000000000000000000000068
:102680000000000003000700020001000700000036
:1026900054210008E43700082A000000E803000085
:1026A0000700000000000000000000000000000023
:1026B0000500050001000200050000005B21000884
:1026C000043800082B000000E803000007000000A9
:1026D00000000000000000000000000005000500F0
:1026E0000100020005000000602100082C380008ED
:1026F0002C000000E80300000700000000000000BC
:1027000000000000000000000200030002000100C1
:102710000300000065210008543800082D00000067
:10272000E8030000070000000000000000000000B7
:10273000000000000500010001000400010000008D
:10274000682100087C3800082E000000E803000023
:102750000700000000000000000000000000000072
:1027600002000200020001000200000069210008CE
:10277000A43800082F000000E80300000700000054
:10278000000000000000000000000000050005003F
:1027900001000200050000006B21000898360008C7
:1027A00030000000E8030000070000000000000007
:1027B000000000000000000005000700010001000B
:1027C0000700000070210008C0360008310000003A
:1027D000E803000007000000000000000000000007
:1027E00000000000030007000200010007000000D5
:1027F00077210008E036000832000000E8030000FE
:1028000007000000000000000000000000000000C1
:102810000500070001000100070000007E210008FC
:102820000037000833000000E80300000700000044
:10283000000000000000000000000000050007008C
:102840000100010007000000852100082037000872
:1028500034000000E8030000070000000000000052
:10286000000000000000000005000700010001005A
:10287000070000008C2100084037000835000000E8
:10288000E803000007000000000000000000000056
:102890000000000005000700010001000700000023
:1028A000932100086037000836000000E8030000AC
:1028B0000700000000000000000000000000000011
:1028C0000500070001000100070000009A21000830
:1028D0008037000837000000E80300000700000010
:1028E00000000000000000000000000005000700DC
:1028F0000100010007000000A1210008A037000826
:1029000038000000E803000007000000000000009D
:1029100000000000000000000500070001000100A9
:1029200007000000A8210008CC370008390000008B
:10293000E8030000070000000000000000000000A5
:102940000000000005000700010001000700000072
:10295000AF210008EC3700083A000000E80300004F
:102960000700000000000000000000000000000060
:10297000020005000200020005000000B621000868
:102980000C3800083B000000E803000007000000CE
:10299000000000000000000000000000020006002F
:1029A0000200010006000000BB21000834380008C6
:1029B0003C000000E80300000700000000000000E9
:1029C00000000000000000000400070002000100F9
:1029D00007000000C12100085C3800083D0000002D
:1029E000E8030000070000000000000000000000F5
:1029F00000000000050003000100030003000000C8
:102A0000C8210008843800083E000000E8030000E8
:102A100007000000000000000000000000000000AF
:102A2000040007000100010007000000CB2100089E
:102A3000AC3800083F000000E80300000700000079
:102A4000000000000000000000000000050007007A
:102A50000100010007000000D2210008A036000894
:102A600040000000E8030000070000000000000034
:102A70000000000000000000050007000100010048
:102A800007000000D9210008C836000841000000F6
:102A9000E803000007000000000000000000000044
:102AA0000000000005000700010001000700000011
:102AB000E0210008E836000842000000E8030000BA
:102AC00007000000000000000000000000000000FF
:102AD000050007000100010007000000E7210008D1
:102AE0000837000843000000E8030000070000006A
:102AF00000000000000000000000000005000700CA
:102B00000100010007000000EE210008283700083E
:102B100044000000E803000007000000000000007F
:102B20000000000000000000050007000100010097
:102B300007000000F52100084837000845000000A4
:102B4000E803000007000000000000000000000093
:102B50000000000005000700010001000700000060
:102B6000FC2100086837000846000000E803000068
:102B7000070000000000000000000000000000004E
:102B80000500070001000100070000000322000803
:102B90008837000847000000E80300000700000035
:102BA0000000000000000000000000000500070019
:102BB00001000100070000000A220008A8370008F1
:102BC00048000000E80300000700000000000000CB
:102BD00000000000000000000500070001000100E7
:102BE0000700000011220008D43700084900000047
:102BF000E8030000070000000000000000000000E3
:102C000000000000030007000200010007000000B0
:102C100018220008F43700084A000000E80300000A
:102C2000070000000000000000000000000000009D
:102C30000500070001000100070000001F22000836
:102C4000143800084B000000E803000007000000F3
:102C50000000000000000000000000000500070068
:102C60000100010007000000262200083C3800088F
:102C70004C000000E8030000070000000000000016
:102C80000000000000000000050007000100010036
:102C9000070000002D220008643800084D000000E5
:102CA000E803000007000000000000000000000032
:102CB00000000000050007000100010007000000FF
:102CC000342200088C3800084E000000E8030000A1
:102CD00007000000000000000000000000000000ED
:102CE0000500070001000100070000003B2200086A
:102CF000B43800084F000000E8030000070000009F
:102D000000000000000000000000000005000700B7
:102D1000010001000700000042220008A836000858
:102D200050000000E8030000070000000000000061
:102D30000000000000000000050007000100010085
:102D40000700000049220008D036000851000000AA
:102D5000E803000007000000000000000000000081
:102D6000000000000500070001000100070000004E
:102D700050220008F036000852000000E80300006E
:102D8000070000000000000000000000000000003C
:102D9000050007000100010007000000572200089D
:102DA0001037000853000000E8030000070000008F
:102DB0000000000000000000000000000500070007
:102DC00001000100070000005E2200083037000803
:102DD00054000000E80300000700000000000000AD
:102DE00000000000000000000500070001000100D5
:102DF0000700000065220008503700085500000059
:102E0000E8030000070000000000000000000000D0
:102E1000000000000500070001000100070000009D
:102E20006C2200087037000856000000E80300001C
:102E3000070000000000000000000000000000008B
:102E400005000700010001000700000073220008D0
:102E50009037000857000000E8030000070000005A
:102E60000000000000000000000000000500070056
:102E700001000100070000007A220008B0370008B6
:102E800058000000E80300000700000000000000F8
:102E90000000000000000000050007000100010024
:102EA0000700000081220008DC37000859000000FC
:102EB000E803000007000000000000000000000020
:102EC00000000000050007000100010007000000ED
:102ED00088220008FC3700085A000000E8030000C0
:102EE00007000000000000000000000000000000DB
:102EF0000500070001000100070000008F22000804
:102F00001C3800085B000000E80300000700000018
:102F100000000000000000000000000003000700A7
:102F20000200010007000000962200084438000853
:102F30005C000000E8030000070000000000000043
:102F40000000000000000000050005000100020074
:102F5000050000009D2200086C3800085D0000009C
:102F6000E80300000700000000000000000000006F
:102F7000000000000300070002000100070000003D
:102F8000A2220008943800085E000000E803000058
:102F9000070000000000000000000000000000002A
:102FA000050003000100050003000000A92200083D
:102FB000BC3800085F000000E803000007000000C4
:102FC00000000000000000000000000005000100FB
:102FD0000100010001000000AC220008B03600082A
:102FE00060000000E803000007000000000000008F
:102FF00000000000000000000300030002000500C4
:1030000003000000AD220008B03500086100000098
:10301000E8030000070000000000000000000000BE
:10302000000000000500050001000100050000008F
:10303000B0220008C035000862000000E80300006C
:103040000700000000000000000000000000000079
:10305000050007000100010007000000B52200087C
:10306000D035000863000000E803000007000000FE
:103070000000000000000000000000000500050046
:103080000100010005000000BC220008E035000836
:1030900064000000E80300000700000000000000DA
:1030A0000000000000000000050007000100010012
:1030B00007000000C1220008F0350008650000008C
:1030C000E80300000700000000000000000000000E
:1030D00000000000050005000100010005000000DF
:1030E000C82200080836000866000000E803000057
:1030F00007000000000000000000000000000000C9
:10310000050007000100010007000000CD220008B3
:103110001836000867000000E80300000700000000
:103120000000000000000000000000000500050095
:103130000100010005000000D42200082836000824
:1031400068000000E8030000070000000000000025
:103150000000000000000000050007000100010061
:1031600007000000D9220008383600086900000076
:10317000E80300000700000000000000000000005D
:10318000000000000300070002000100070000002B
:10319000E0220008483600086A000000E80300004A
:1031A0000700000000000000000000000000000018
:1031B000040007000100010007000000E7220008EA
:1031C000583600086B000000E8030000070000000C
:1031D00000000000000000000000000004000700E4
:1031E0000200010007000000EE2200086836000817
:1031F0006C000000E8030000070000000000000071
:1032000000000000000000000300070002000100B1
:1032100007000000F5220008703600086D0000006D
:10322000E8030000070000000000000000000000AC
:10323000000000000500050001000100050000007D
:10324000FC220008803600086E000000E803000041
:103250000700000000000000000000000000000067
:103260000500050001000100050000000123000821
:10327000883600086F000000E80300000700000027
:103280000000000000000000000000000500050034
:103290000100010005000000062300085C3500085D
:1032A00070000000E80300000700000000000000BC
:1032B0000000000000000000050005000100010002
:1032C000050000000B230008B8350008710000005D
:1032D000E8030000070000000000000000000000FC
:1032E00000000000050006000100010006000000CB
:1032F00010230008C835000872000000E803000031
:1033000007000000000000000000000000000000B6
:10331000050005000100010005000000162300085B
:10332000D835000873000000E80300000700000023
:103330000000000000000000000000000500050083
:1033400001000100050000001B230008E83500080B
:1033500074000000E8030000070000000000000007
:10336000000000000000000005000700010001004F
:103370000700000020230008F83500087500000051
:10338000E80300000700000000000000000000004B
:10339000000000000500060001000100060000001A
:1033A000272300081036000876000000E80300001C
:1033B0000700000000000000000000000000000006
:1033C0000500050001000100050000002D23000894
:1033D0002036000877000000E80300000700000026
:1033E00000000000000000000000000005000500D3
:1033F00001000100050000003223000830360008FB
:1034000078000000E8030000070000000000000052
:1034100000000000000000000500050001000100A0
:10342000050000003723000840360008790000003E
:10343000E80300000700000000000000000000009A
:10344000000000000500050001000100050000006B
:103450003C230008503600087A000000E803000012
:103460000700000000000000000000000000000055
:1034700005000500010001000500000041230008CF
:10348000243800087B000000E8030000070000006B
:103490000000000000000000000000000300070022
:1034A0000200010007000000462300084C38000815
:1034B0007C000000E803000007000000000000009E
:1034C00000000000000000000100070003000100F0
:1034D000070000004D230008743800087D0000003C
:1034E000E8030000070000000000000000000000EA
:1034F00000000000030007000200010007000000B8
:10350000542300089C3800087E000000E8030000F7
:1035100007000000000000000000000000000000A4
:103520000500030001000500030000005B23000804
:10353000AC350008B837000800000000080048005B
:10354000480007000800000000005F00602300083A
:10355000DC240008344636300000000030303730BC
:10356000000000002D46726565547970652D48593C
:103570004A696E4B61694A2D4D656469756D2D52BE
:103580002D4E6F726D616C2D2D32322D3136302DF6
:103590003130302D3130302D502D3138322D4953CE
:1035A0004F31303634362D3100000000322E3100DC
:1035B000303036310000000030303731000000007C
:1035C000303036320000000030303732000000006A
:1035D0003030363300000000303037330000000058
:1035E0003030363400000000303037340000000046
:1035F0003030363500000000303037350000000034
:10360000344531360000000030303636000000000E
:103610003030373600000000303036370000000010
:1036200030303737000000003030363800000000FE
:1036300030303738000000003030363900000000EC
:1036400030303739000000003030364100000000D3
:1036500030303741000000003030364200000000BA
:10366000373534430000000030303643000000009E
:103670003030364400000000353937440000000087
:103680003030364500000000303036460000000083
:1036900030303230000000003030333000000000A5
:1036A0003030343000000000303035300000000091
:1036B0003030363000000000303032310000000081
:1036C0003030333100000000303034310000000071
:1036D0003030353100000000303032320000000060
:1036E000303033320000000030303432000000004F
:1036F000303035320000000030303233000000003E
:10370000303033330000000030303433000000002C
:10371000303035330000000030303234000000001B
:10372000303033340000000030303434000000000A
:1037300030303534000000003030323500000000F9
:1037400030303335000000003030343500000000E8
:1037500030303535000000003030323600000000D7
:1037600030303336000000003030343600000000C6
:1037700030303536000000003030323700000000B5
:1037800030303337000000003030343700000000A4
:103790003030353700000000303032380000000093
:1037A0003030333800000000303034380000000082
:1037B00030303538000000004D6174726978203572
:1037C00078380000303032390000000030303339B2
:1037D000000000003030343900000000303035394E
:1037E0000000000030303241000000003030334132
:1037F000000000003030344100000000303035411E
:10380000000000003030324200000000303033420F
:1038100000000000303034420000000030303542FB
:1038200000000000303037420000000030303243EA
:1038300000000000303033430000000030303443DB
:1038400000000000303035430000000030303743C6
:1038500000000000303032440000000030303344BB
:1038600000000000303034440000000030303544A7
:103870000000000030303744000000003030324596
:103880000000000030303345000000003030344587
:103890000000000030303545000000003030374572
:1038A0000000000030303246000000003030334667
:1038B0000000000030303446000000003030354653
:1038C00000000000E4380008000000202804000088
:1038D000DC050008C8390008280400203820000052
:1038E0005C1200080A33FF0122F8AA3F1032808AD6
:1038F0007F0F42F08A07104298BA032E993172FE68
:10390000AA1F3E994119109B03FC412AC07D19153D
:103910007A014F290A315910211A0F067AE06149BC
:10392000AC19B37910590759104A80496AC0D34A73
:1039300080697AF82068080FC0FFFFFC015F106AF9
:10394000C02869A059105AC1101CF83FF2815C468A
:103950007FC3103CFC3FFFDB5ADF105AFF305ACFC9
:10396000500916010A1CEF1FB9013A9F620937017D
:10397000BCFC1E01100A3BFD4E092372C9FD0B2938
:10398000F8073C4AFB076AE3104AC3075B803F081D
:1039900011496221391122F02A1F0822E01A030777
:1039A00032FE2908191F212A0F2E3911390F211A29
:1039B0007F2EC102E4032D01020304040009140652
:0839C0000708090204060800D3
:04000005080000ED02
:00000001FF
