:020000040800F2
:1000000010100020050100081F03000885020008E9
:10001000890200084D010008E50400080000000006
:100020000000000000000000000000004503000880
:100030005101000800000000210300086D040008C1
:100040001F0100081F0100081F0100081F01000810
:100050001F0100081F0100081F0100081F01000800
:100060001F0100081F0100081F0100081F010008F0
:100070001F0100081F0100081F0100081F010008E0
:100080001F0100081F0100081F0100081F010008D0
:100090001F0100081F0100081F0100081F010008C0
:1000A0001F0100081F0100081F0100081F010008B0
:1000B0001F0100081F0100081F0100081F010008A0
:1000C0001F0100081F0100081F0100081F01000890
:1000D0001F0100081F0100081F0100081F01000880
:1000E0001F0100081F0100081F010008DFF810D0E1
:1000F00000F01AF80048004715050008AFF300802B
:10010000101000200648804706480047FEE7FEE73B
:10011000FEE7FEE7FEE7FEE7FEE7FEE7FEE7FEE7B7
:1001200085040008ED000008064C074D06E0E06875
:1001300040F0010394E8070098471034AC42F6D32E
:10014000FFF7D8FFFC0500081C06000800BFFEE70B
:1001500070472DE9F04102460025002600200023CB
:100160000024002791F803C00CF00F0591F803C09C
:100170000CF0100CBCF1000F03D091F802C04CEA57
:10018000050591F800C0BCF1000F31D014680020C3
:100190002BE04FF0010C0CFA00F3B1F800C00CEAB0
:1001A00003069E4220D183004FF00F0C0CFA03F798
:1001B000BC4305FA03FC4CEA040491F803C0BCF10B
:1001C000280F06D14FF0010C0CFA00FCC2F814C045
:1001D0000AE091F803C0BCF1480F05D14FF0010CC3
:1001E0000CFA00FCC2F810C0401C0828D1D31460DF
:1001F000B1F800C0BCF1FF0F34DD546800202EE0E0
:1002000000F1080C4FF0010808FA0CF3B1F800C037
:100210000CEA03069E4221D183004FF00F0C0CFA2A
:1002200003F7BC4305FA03FC4CEA040491F803C04D
:10023000BCF1280F05D100F1080C08FA0CF8C2F83F
:10024000148091F803C0BCF1480F07D100F1080CED
:100250004FF0010808FA0CF8C2F81080401C08287A
:10026000CED35460BDE8F0810246002093680B4075
:100270000BB1012000E0002070470AB1016100E0ED
:100280004161704700BFFEE700BFFEE708B50121EE
:10029000042000F047F80320ADF8000014208DF88A
:1002A000030002208DF80200012211460648FFF7E4
:1002B000E4FF012202210448FFF7DFFF69460248FC
:1002C000FFF747FF08BD0000000801402DE9F0419D
:1002D00005460E46174600F036F805F0FE0000F021
:1002E0005BF928B100F037F84FF0FF30BDE8F0813E
:1002F00000240EE0315D09B1012100E00021084633
:1003000000F04AF920B100F026F86FF00100EDE7A7
:10031000641CBC42EED300F01EF80020E6E77047F4
:100320007047000029B1064A92690243044B9A6162
:1003300004E0034A92698243014B9A6170470000CE
:1003400000100240704710B5002000F013F90120A2
:1003500000F0D9F810BD10B5002000F0EDF8002035
:1003600000F008F9012000F0CEF8012000F0E4F8D8
:10037000012000F0C8F8012000F0FCF8012000F096
:10038000C2F810BD10B500F001F810BD0CB500208A
:10039000019000903348006840F480303149086093
:1003A00000BF3048006800F4003000900198401C05
:1003B0000190009818B90198B0F5A06FF1D12948C3
:1003C000006800F4003010B10120009001E000202E
:1003D00000900098012843D12348006840F01000A5
:1003E000214908600846006820F0070008600846B8
:1003F000006840F0020008601A48406819494860E7
:100400000846406848600846406840F4806048609C
:100410000846406820F47C1048600846406840F474
:10042000E81048600846006840F08070086000BF2F
:100430000C48006800F000700028F9D009484068B6
:1004400020F00300074948600846406840F0020079
:10045000486000BF0348406800F00C000828F9D14C
:100460000CBD000000100240002002400448036858
:1004700040685A1C40F1000001490A60486070471A
:100480000000002010B51348006840F00100114939
:10049000086008464068104908400E494860084610
:1004A00000680E4908400B4908600846006820F4BF
:1004B000802008600846406820F4FE0048604FF441
:1004C0001F008860FFF75EFF4FF00060044908607E
:1004D00010BD0000001002400000FFF8FFFFF6FE14
:1004E00008ED00E000BFFEE702E008C8121F08C1E7
:1004F000002AFAD170477047002001E001C1121FA5
:10050000002AFBD17047C200002100E0491C914243
:10051000FCD370471CB5FFF7B9FE05A103C9CDE9AF
:100520000001052269467820FFF7D0FE00BFFEE7F4
:10053000008D14AFA500000010B504462CB90022B0
:1005400001210548FFF799FE04E001221146024807
:10055000FFF793FE10BD00000008014010B5022116
:100560000348FFF781FE012800D110BD0020FCE701
:100570000008014010B504462CB9002202210548AC
:10058000FFF77BFE04E0012202210248FFF775FE1F
:1005900010BD00000008014070B50546072418E0B2
:1005A0000020FFF7C9FF0120A040284018B101201A
:1005B000FFF7E0FF02E00020FFF7DCFF0120FFF77C
:1005C000A2FF0120FFF7B8FF0120FFF79CFF601E8C
:1005D00044B2002CE4DA0020FFF7AEFF0120FFF761
:1005E000C9FF0120FFF78FFF0120FFF7A5FF0120C2
:1005F000FFF789FFFFF7B2FF70BD00001C0600087F
:10060000000000200C000000E80400082806000894
:100610000C00002004100000F80400080000000096
:080620000000000000000000D2
:04000005080000ED02
:00000001FF
